{
  "contractName": "Election",
  "abi": [
    {
      "inputs": [],
      "stateMutability": "nonpayable",
      "type": "constructor"
    },
    {
      "anonymous": false,
      "inputs": [
        {
          "indexed": true,
          "internalType": "uint256",
          "name": "_candidateid",
          "type": "uint256"
        }
      ],
      "name": "eventVote",
      "type": "event"
    },
    {
      "inputs": [],
      "name": "candidatecount",
      "outputs": [
        {
          "internalType": "uint256",
          "name": "",
          "type": "uint256"
        }
      ],
      "stateMutability": "view",
      "type": "function"
    },
    {
      "inputs": [
        {
          "internalType": "uint256",
          "name": "",
          "type": "uint256"
        }
      ],
      "name": "candidates",
      "outputs": [
        {
          "internalType": "uint256",
          "name": "id",
          "type": "uint256"
        },
        {
          "internalType": "string",
          "name": "name",
          "type": "string"
        },
        {
          "internalType": "uint256",
          "name": "voteCount",
          "type": "uint256"
        }
      ],
      "stateMutability": "view",
      "type": "function"
    },
    {
      "inputs": [
        {
          "internalType": "address",
          "name": "",
          "type": "address"
        }
      ],
      "name": "voter",
      "outputs": [
        {
          "internalType": "bool",
          "name": "",
          "type": "bool"
        }
      ],
      "stateMutability": "view",
      "type": "function"
    },
    {
      "inputs": [
        {
          "internalType": "uint256",
          "name": "_candidateid",
          "type": "uint256"
        }
      ],
      "name": "vote",
      "outputs": [],
      "stateMutability": "nonpayable",
      "type": "function"
    }
  ],
  "bytecode": "0x608060405234801562000010575f80fd5b50620000576040518060400160405280600581526020017f416c696365000000000000000000000000000000000000000000000000000000815250620000a360201b60201c565b6200009d6040518060400160405280600381526020017f426f620000000000000000000000000000000000000000000000000000000000815250620000a360201b60201c565b620004dc565b60015f815480929190620000b79062000151565b9190505550604051806060016040528060015481526020018281526020015f8152505f8060015481526020019081526020015f205f820151815f015560208201518160010190816200010a9190620003f8565b506040820151816002015590505050565b7f4e487b71000000000000000000000000000000000000000000000000000000005f52601160045260245ffd5b5f819050919050565b5f6200015d8262000148565b91507fffffffffffffffffffffffffffffffffffffffffffffffffffffffffffffffff82036200019257620001916200011b565b5b600182019050919050565b5f81519050919050565b7f4e487b71000000000000000000000000000000000000000000000000000000005f52604160045260245ffd5b7f4e487b71000000000000000000000000000000000000000000000000000000005f52602260045260245ffd5b5f60028204905060018216806200021957607f821691505b6020821081036200022f576200022e620001d4565b5b50919050565b5f819050815f5260205f209050919050565b5f6020601f8301049050919050565b5f82821b905092915050565b5f60088302620002937fffffffffffffffffffffffffffffffffffffffffffffffffffffffffffffffff8262000256565b6200029f868362000256565b95508019841693508086168417925050509392505050565b5f819050919050565b5f620002e0620002da620002d48462000148565b620002b7565b62000148565b9050919050565b5f819050919050565b620002fb83620002c0565b620003136200030a82620002e7565b84845462000262565b825550505050565b5f90565b620003296200031b565b62000336818484620002f0565b505050565b5b818110156200035d57620003515f826200031f565b6001810190506200033c565b5050565b601f821115620003ac57620003768162000235565b620003818462000247565b8101602085101562000391578190505b620003a9620003a08562000247565b8301826200033b565b50505b505050565b5f82821c905092915050565b5f620003ce5f1984600802620003b1565b1980831691505092915050565b5f620003e88383620003bd565b9150826002028217905092915050565b62000403826200019d565b67ffffffffffffffff8111156200041f576200041e620001a7565b5b6200042b825462000201565b6200043882828562000361565b5f60209050601f8311600181146200046e575f841562000459578287015190505b620004658582620003db565b865550620004d4565b601f1984166200047e8662000235565b5f5b82811015620004a75784890151825560018201915060208501945060208101905062000480565b86831015620004c75784890151620004c3601f891682620003bd565b8355505b6001600288020188555050505b505050505050565b61068480620004ea5f395ff3fe608060405234801561000f575f80fd5b506004361061004a575f3560e01c80630121b93f1461004e5780633477ee2e1461006a578063af0dbe541461009c578063c8b94d69146100cc575b5f80fd5b61006860048036038101906100639190610344565b6100ea565b005b610084600480360381019061007f9190610344565b61023f565b60405161009393929190610408565b60405180910390f35b6100b660048036038101906100b1919061049e565b6102ea565b6040516100c391906104e3565b60405180910390f35b6100d4610307565b6040516100e191906104fc565b60405180910390f35b5f151560025f3373ffffffffffffffffffffffffffffffffffffffff1673ffffffffffffffffffffffffffffffffffffffff1681526020019081526020015f205f9054906101000a900460ff16151514610179576040517f08c379a00000000000000000000000000000000000000000000000000000000081526004016101709061055f565b60405180910390fd5b5f8111801561018a57506001548111155b610192575f80fd5b600160025f3373ffffffffffffffffffffffffffffffffffffffff1673ffffffffffffffffffffffffffffffffffffffff1681526020019081526020015f205f6101000a81548160ff0219169083151502179055505f808281526020019081526020015f206002015f81548092919061020a906105aa565b9190505550807f5190cbcb11a5b819d29d510204755e1304f26705e78d63e90e9befa7c78c164b60405160405180910390a250565b5f602052805f5260405f205f91509050805f0154908060010180546102639061061e565b80601f016020809104026020016040519081016040528092919081815260200182805461028f9061061e565b80156102da5780601f106102b1576101008083540402835291602001916102da565b820191905f5260205f20905b8154815290600101906020018083116102bd57829003601f168201915b5050505050908060020154905083565b6002602052805f5260405f205f915054906101000a900460ff1681565b60015481565b5f80fd5b5f819050919050565b61032381610311565b811461032d575f80fd5b50565b5f8135905061033e8161031a565b92915050565b5f602082840312156103595761035861030d565b5b5f61036684828501610330565b91505092915050565b61037881610311565b82525050565b5f81519050919050565b5f82825260208201905092915050565b5f5b838110156103b557808201518184015260208101905061039a565b5f8484015250505050565b5f601f19601f8301169050919050565b5f6103da8261037e565b6103e48185610388565b93506103f4818560208601610398565b6103fd816103c0565b840191505092915050565b5f60608201905061041b5f83018661036f565b818103602083015261042d81856103d0565b905061043c604083018461036f565b949350505050565b5f73ffffffffffffffffffffffffffffffffffffffff82169050919050565b5f61046d82610444565b9050919050565b61047d81610463565b8114610487575f80fd5b50565b5f8135905061049881610474565b92915050565b5f602082840312156104b3576104b261030d565b5b5f6104c08482850161048a565b91505092915050565b5f8115159050919050565b6104dd816104c9565b82525050565b5f6020820190506104f65f8301846104d4565b92915050565b5f60208201905061050f5f83018461036f565b92915050565b7f796f7520616c726561647920766f7465640000000000000000000000000000005f82015250565b5f610549601183610388565b915061055482610515565b602082019050919050565b5f6020820190508181035f8301526105768161053d565b9050919050565b7f4e487b71000000000000000000000000000000000000000000000000000000005f52601160045260245ffd5b5f6105b482610311565b91507fffffffffffffffffffffffffffffffffffffffffffffffffffffffffffffffff82036105e6576105e561057d565b5b600182019050919050565b7f4e487b71000000000000000000000000000000000000000000000000000000005f52602260045260245ffd5b5f600282049050600182168061063557607f821691505b602082108103610648576106476105f1565b5b5091905056fea26469706673582212207fe2d53474882483b4b2d37851fb8baf168ff55ba2eea0da0f7656caa3144c4f64736f6c63430008150033",
  "immutableReferences": {},
  "source": "// SPDX-License-Identifier: UNLICENSED\r\npragma solidity ^0.8.17;\r\n\r\ncontract Election{\r\n    struct Candidate{\r\n        uint id;\r\n        string name;\r\n        uint voteCount;\r\n    }\r\n\r\n    event eventVote(\r\n        uint indexed _candidateid //it will store it as log not data**\r\n    );\r\n    \r\n    mapping (uint=>Candidate) public candidates;\r\n\r\n    uint public candidatecount;\r\n\r\n    mapping(address=>bool) public voter;\r\n\r\n    constructor() {\r\n        addCandidate(\"Alice\");\r\n        addCandidate(\"Bob\");\r\n    }\r\n    function addCandidate(string memory _name) private{\r\n        candidatecount++;\r\n        candidates[candidatecount] = Candidate(candidatecount, _name, 0);\r\n    }\r\n    function vote(uint _candidateid) public{\r\n        require(voter[msg.sender]==false,\"you already voted\");\r\n        require(_candidateid>0 && _candidateid<=candidatecount);\r\n        voter[msg.sender] = true;\r\n        candidates[_candidateid].voteCount++;\r\n        emit eventVote(_candidateid);\r\n    }\r\n}",
  "sourcePath": "C:\\Users\\rauna\\Desktop\\evm_project\\contracts\\evm.sol",
  "compiler": {
    "name": "solc",
    "version": "0.8.21+commit.d9974bed.Emscripten.clang"
  },
  "schemaVersion": "3.4.16",
  "updatedAt": "2024-03-11T12:22:40.037Z",
  "devdoc": {
    "kind": "dev",
    "methods": {},
    "version": 1
  },
  "userdoc": {
    "kind": "user",
    "methods": {},
    "version": 1
  }
}